{
  "_format": "hh-sol-artifact-1",
  "contractName": "EscrowLoan",
  "sourceName": "contracts/loan.sol",
  "abi": [
    {
      "anonymous": false,
      "inputs": [
        {
          "indexed": false,
          "internalType": "uint256",
          "name": "id",
          "type": "uint256"
        }
      ],
      "name": "LoanCancelled",
      "type": "event"
    },
    {
      "anonymous": false,
      "inputs": [
        {
          "indexed": false,
          "internalType": "uint256",
          "name": "id",
          "type": "uint256"
        }
      ],
      "name": "LoanComplete",
      "type": "event"
    },
    {
      "anonymous": false,
      "inputs": [
        {
          "indexed": false,
          "internalType": "uint256",
          "name": "id",
          "type": "uint256"
        },
        {
          "indexed": true,
          "internalType": "address",
          "name": "borrower",
          "type": "address"
        },
        {
          "indexed": false,
          "internalType": "address",
          "name": "tokenAddress",
          "type": "address"
        },
        {
          "indexed": false,
          "internalType": "uint256",
          "name": "tokenId",
          "type": "uint256"
        },
        {
          "indexed": false,
          "internalType": "uint256",
          "name": "maxLoanAmount",
          "type": "uint256"
        },
        {
          "indexed": false,
          "internalType": "uint256",
          "name": "loanCompleteTime",
          "type": "uint256"
        }
      ],
      "name": "LoanCreated",
      "type": "event"
    },
    {
      "anonymous": false,
      "inputs": [
        {
          "indexed": false,
          "internalType": "uint256",
          "name": "id",
          "type": "uint256"
        }
      ],
      "name": "LoanDefaulted",
      "type": "event"
    },
    {
      "anonymous": false,
      "inputs": [
        {
          "indexed": false,
          "internalType": "uint256",
          "name": "id",
          "type": "uint256"
        },
        {
          "indexed": false,
          "internalType": "address",
          "name": "lender",
          "type": "address"
        }
      ],
      "name": "LoanFunded",
      "type": "event"
    },
    {
      "anonymous": false,
      "inputs": [
        {
          "indexed": false,
          "internalType": "uint256",
          "name": "id",
          "type": "uint256"
        },
        {
          "indexed": false,
          "internalType": "uint256",
          "name": "amount",
          "type": "uint256"
        }
      ],
      "name": "LoanRepayment",
      "type": "event"
    },
    {
      "anonymous": false,
      "inputs": [
        {
          "indexed": false,
          "internalType": "uint256",
          "name": "id",
          "type": "uint256"
        },
        {
          "indexed": false,
          "internalType": "address",
          "name": "lender",
          "type": "address"
        },
        {
          "indexed": false,
          "internalType": "address",
          "name": "caller",
          "type": "address"
        }
      ],
      "name": "NFTSeized",
      "type": "event"
    },
    {
      "inputs": [
        {
          "internalType": "uint256",
          "name": "_loanId",
          "type": "uint256"
        },
        {
          "internalType": "uint256",
          "name": "_future",
          "type": "uint256"
        }
      ],
      "name": "calculateTotalInterest",
      "outputs": [
        {
          "internalType": "uint256",
          "name": "",
          "type": "uint256"
        }
      ],
      "stateMutability": "view",
      "type": "function"
    },
    {
      "inputs": [
        {
          "internalType": "uint256",
          "name": "_loanId",
          "type": "uint256"
        }
      ],
      "name": "cancelLoan",
      "outputs": [],
      "stateMutability": "nonpayable",
      "type": "function"
    },
    {
      "inputs": [
        {
          "internalType": "address",
          "name": "_tokenAddress",
          "type": "address"
        },
        {
          "internalType": "uint256",
          "name": "_tokenId",
          "type": "uint256"
        },
        {
          "internalType": "uint256",
          "name": "_interestRate",
          "type": "uint256"
        },
        {
          "internalType": "uint256",
          "name": "_maxLoanAmount",
          "type": "uint256"
        },
        {
          "internalType": "uint256",
          "name": "_loanCompleteTime",
          "type": "uint256"
        },
        {
          "internalType": "uint256",
          "name": "_installmentPeriod",
          "type": "uint256"
        }
      ],
      "name": "createLoan",
      "outputs": [
        {
          "internalType": "uint256",
          "name": "",
          "type": "uint256"
        }
      ],
      "stateMutability": "nonpayable",
      "type": "function"
    },
    {
      "inputs": [
        {
          "internalType": "uint256",
          "name": "_loanId",
          "type": "uint256"
        }
      ],
      "name": "drawLoan",
      "outputs": [],
      "stateMutability": "nonpayable",
      "type": "function"
    },
    {
      "inputs": [
        {
          "internalType": "uint256",
          "name": "_loanId",
          "type": "uint256"
        }
      ],
      "name": "fundLoan",
      "outputs": [],
      "stateMutability": "payable",
      "type": "function"
    },
    {
      "inputs": [
        {
          "internalType": "uint256",
          "name": "",
          "type": "uint256"
        }
      ],
      "name": "loans",
      "outputs": [
        {
          "internalType": "address",
          "name": "tokenAddress",
          "type": "address"
        },
        {
          "internalType": "address",
          "name": "borrower",
          "type": "address"
        },
        {
          "internalType": "address",
          "name": "lender",
          "type": "address"
        },
        {
          "internalType": "uint256",
          "name": "tokenId",
          "type": "uint256"
        },
        {
          "internalType": "uint256",
          "name": "interestRate",
          "type": "uint256"
        },
        {
          "internalType": "uint256",
          "name": "loanAmount",
          "type": "uint256"
        },
        {
          "internalType": "uint256",
          "name": "maxLoanAmount",
          "type": "uint256"
        },
        {
          "internalType": "uint256",
          "name": "loanAmountDrawn",
          "type": "uint256"
        },
        {
          "internalType": "uint256",
          "name": "loanCompleteTime",
          "type": "uint256"
        },
        {
          "internalType": "enum EscrowLoan.LoanStatus",
          "name": "status",
          "type": "uint8"
        },
        {
          "internalType": "uint256",
          "name": "installmentPeriod",
          "type": "uint256"
        },
        {
          "internalType": "uint256",
          "name": "lastInstallmentTime",
          "type": "uint256"
        }
      ],
      "stateMutability": "view",
      "type": "function"
    },
    {
      "inputs": [],
      "name": "numLoans",
      "outputs": [
        {
          "internalType": "uint256",
          "name": "",
          "type": "uint256"
        }
      ],
      "stateMutability": "view",
      "type": "function"
    },
    {
      "inputs": [
        {
          "internalType": "uint256",
          "name": "_loanId",
          "type": "uint256"
        },
        {
          "internalType": "uint256",
          "name": "_amount",
          "type": "uint256"
        }
      ],
      "name": "repayLoan",
      "outputs": [],
      "stateMutability": "payable",
      "type": "function"
    },
    {
      "inputs": [
        {
          "internalType": "uint256",
          "name": "_loanId",
          "type": "uint256"
        }
      ],
      "name": "seizeNFT",
      "outputs": [],
      "stateMutability": "nonpayable",
      "type": "function"
    }
  ],
  "bytecode": "0x608060405234801561001057600080fd5b50612816806100206000396000f3fe6080604052600436106100865760003560e01c80638a700b53116100595780638a700b531461014a578063bb2e36d714610166578063bdbfa3de1461018f578063d463eeb3146101b8578063e1ec3c68146101e357610086565b80630a7a235a1461008b5780631079f7af146100c857806341c379c914610105578063846b909a1461012e575b600080fd5b34801561009757600080fd5b506100b260048036038101906100ad9190611a56565b61022b565b6040516100bf9190611aa5565b60405180910390f35b3480156100d457600080fd5b506100ef60048036038101906100ea9190611b1e565b610461565b6040516100fc9190611aa5565b60405180910390f35b34801561011157600080fd5b5061012c60048036038101906101279190611bab565b610743565b005b61014860048036038101906101439190611bab565b6109e6565b005b610164600480360381019061015f9190611a56565b610c10565b005b34801561017257600080fd5b5061018d60048036038101906101889190611bab565b61100e565b005b34801561019b57600080fd5b506101b660048036038101906101b19190611bab565b6113f4565b005b3480156101c457600080fd5b506101cd61164c565b6040516101da9190611aa5565b60405180910390f35b3480156101ef57600080fd5b5061020a60048036038101906102059190611bab565b611652565b6040516102229c9b9a99989796959493929190611c5e565b60405180910390f35b60008060016000858152602001908152602001600020604051806101800160405290816000820160009054906101000a900473ffffffffffffffffffffffffffffffffffffffff1673ffffffffffffffffffffffffffffffffffffffff1673ffffffffffffffffffffffffffffffffffffffff1681526020016001820160009054906101000a900473ffffffffffffffffffffffffffffffffffffffff1673ffffffffffffffffffffffffffffffffffffffff1673ffffffffffffffffffffffffffffffffffffffff1681526020016002820160009054906101000a900473ffffffffffffffffffffffffffffffffffffffff1673ffffffffffffffffffffffffffffffffffffffff1673ffffffffffffffffffffffffffffffffffffffff1681526020016003820154815260200160048201548152602001600582015481526020016006820154815260200160078201548152602001600882015481526020016009820160009054906101000a900460ff1660048111156103b0576103af611be7565b5b60048111156103c2576103c1611be7565b5b8152602001600a8201548152602001600b820154815250509050600081610100015184426103f09190611d47565b6103fa9190611d7b565b905060008261010001518361010001516104149190611d7b565b90506000610422838361171f565b905060006104358560800151606461171f565b90506000610447828760a00151611786565b90506104538382611786565b965050505050505092915050565b60004283116104a5576040517f08c379a000000000000000000000000000000000000000000000000000000000815260040161049c90611e0c565b60405180910390fd5b600082116104e8576040517f08c379a00000000000000000000000000000000000000000000000000000000081526004016104df90611e9e565b60405180910390fd5b600080600081546104f890611ebe565b91905081905590508773ffffffffffffffffffffffffffffffffffffffff166323b872dd33308a6040518463ffffffff1660e01b815260040161053d93929190611f06565b600060405180830381600087803b15801561055757600080fd5b505af115801561056b573d6000803e3d6000fd5b50505050876001600083815260200190815260200160002060000160006101000a81548173ffffffffffffffffffffffffffffffffffffffff021916908373ffffffffffffffffffffffffffffffffffffffff160217905550336001600083815260200190815260200160002060010160006101000a81548173ffffffffffffffffffffffffffffffffffffffff021916908373ffffffffffffffffffffffffffffffffffffffff16021790555086600160008381526020019081526020016000206003018190555085600160008381526020019081526020016000206004018190555084600160008381526020019081526020016000206006018190555083600160008381526020019081526020016000206008018190555060006001600083815260200190815260200160002060090160006101000a81548160ff021916908360048111156106bf576106be611be7565b5b02179055508260016000838152602001908152602001600020600a01819055503373ffffffffffffffffffffffffffffffffffffffff167f6850239cc8fa897edd78465a234c3240b84bbfb1c55cac4b85364de88ce71095828a8a898960405161072d959493929190611f3d565b60405180910390a2809150509695505050505050565b803373ffffffffffffffffffffffffffffffffffffffff166001600083815260200190815260200160002060010160009054906101000a900473ffffffffffffffffffffffffffffffffffffffff1673ffffffffffffffffffffffffffffffffffffffff16146107e8576040517f08c379a00000000000000000000000000000000000000000000000000000000081526004016107df90611fdc565b60405180910390fd5b81600160048111156107fd576107fc611be7565b5b6001600083815260200190815260200160002060090160009054906101000a900460ff16600481111561083357610832611be7565b5b14610873576040517f08c379a000000000000000000000000000000000000000000000000000000000815260040161086a90612048565b60405180910390fd5b600060016000858152602001908152602001600020905080600501548160070154106108d4576040517f08c379a00000000000000000000000000000000000000000000000000000000081526004016108cb906120b4565b60405180910390fd5b6000816007015482600501546108ea9190611d7b565b90508160050154826007018190555060003373ffffffffffffffffffffffffffffffffffffffff168260405161091f90612105565b60006040518083038185875af1925050503d806000811461095c576040519150601f19603f3d011682016040523d82523d6000602084013e610961565b606091505b50509050806109a5576040517f08c379a000000000000000000000000000000000000000000000000000000000815260040161099c90612166565b60405180910390fd5b7f15feab5d3eb17171632762cf769709a315dd15f487a556c0dfb8a259c8f186cc86336040516109d6929190612186565b60405180910390a1505050505050565b80600060048111156109fb576109fa611be7565b5b6001600083815260200190815260200160002060090160009054906101000a900460ff166004811115610a3157610a30611be7565b5b14610a71576040517f08c379a0000000000000000000000000000000000000000000000000000000008152600401610a68906121fb565b60405180910390fd5b600060016000848152602001908152602001600020905060003411610acb576040517f08c379a0000000000000000000000000000000000000000000000000000000008152600401610ac290612267565b60405180910390fd5b3481600601541015610b12576040517f08c379a0000000000000000000000000000000000000000000000000000000008152600401610b09906122f9565b60405180910390fd5b4281600801541015610b59576040517f08c379a0000000000000000000000000000000000000000000000000000000008152600401610b5090612365565b60405180910390fd5b338160020160006101000a81548173ffffffffffffffffffffffffffffffffffffffff021916908373ffffffffffffffffffffffffffffffffffffffff16021790555034816005018190555060018160090160006101000a81548160ff02191690836004811115610bcd57610bcc611be7565b5b02179055507f15feab5d3eb17171632762cf769709a315dd15f487a556c0dfb8a259c8f186cc8333604051610c03929190612186565b60405180910390a1505050565b813373ffffffffffffffffffffffffffffffffffffffff166001600083815260200190815260200160002060010160009054906101000a900473ffffffffffffffffffffffffffffffffffffffff1673ffffffffffffffffffffffffffffffffffffffff1614610cb5576040517f08c379a0000000000000000000000000000000000000000000000000000000008152600401610cac90611fdc565b60405180910390fd5b600060016000858152602001908152602001600020905060016004811115610ce057610cdf611be7565b5b8160090160009054906101000a900460ff166004811115610d0457610d03611be7565b5b1480610d45575060026004811115610d1f57610d1e611be7565b5b8160090160009054906101000a900460ff166004811115610d4357610d42611be7565b5b145b610d84576040517f08c379a0000000000000000000000000000000000000000000000000000000008152600401610d7b906123d1565b60405180910390fd5b4281600801541015610dcb576040517f08c379a0000000000000000000000000000000000000000000000000000000008152600401610dc29061243d565b60405180910390fd5b6000610dd885600061022b565b90506000818360070154610dec9190611d47565b905080341015610e31576040517f08c379a0000000000000000000000000000000000000000000000000000000008152600401610e28906124a9565b60405180910390fd5b60016004811115610e4557610e44611be7565b5b8360090160009054906101000a900460ff166004811115610e6957610e68611be7565b5b03610e9c5760028360090160006101000a81548160ff02191690836004811115610e9657610e95611be7565b5b02179055505b82600a015483600b0154610eb09190611d47565b421115610ef2576040517f08c379a0000000000000000000000000000000000000000000000000000000008152600401610ee990612515565b60405180910390fd5b84341015610f35576040517f08c379a0000000000000000000000000000000000000000000000000000000008152600401610f2c90612581565b60405180910390fd5b84836007016000828254610f499190611d47565b925050819055504283600b01819055507f74eb6e59df678ce3b4afd511fde3df47cbedd7c742096db39757074577499a9c8686604051610f8a9291906125a1565b60405180910390a182600501548360070154106110065760038360090160006101000a81548160ff02191690836004811115610fc957610fc8611be7565b5b02179055507f8fd2f6536279e29da11ed87593eebd3397e0ad2825b24845f64fcf3fec34139b86604051610ffd9190611aa5565b60405180910390a15b505050505050565b803373ffffffffffffffffffffffffffffffffffffffff166001600083815260200190815260200160002060020160009054906101000a900473ffffffffffffffffffffffffffffffffffffffff1673ffffffffffffffffffffffffffffffffffffffff16146110b3576040517f08c379a00000000000000000000000000000000000000000000000000000000081526004016110aa90612616565b60405180910390fd5b816004808111156110c7576110c6611be7565b5b6001600083815260200190815260200160002060090160009054906101000a900460ff1660048111156110fd576110fc611be7565b5b1461113d576040517f08c379a000000000000000000000000000000000000000000000000000000000815260040161113490612682565b60405180910390fd5b600060016000858152602001908152602001600020604051806101800160405290816000820160009054906101000a900473ffffffffffffffffffffffffffffffffffffffff1673ffffffffffffffffffffffffffffffffffffffff1673ffffffffffffffffffffffffffffffffffffffff1681526020016001820160009054906101000a900473ffffffffffffffffffffffffffffffffffffffff1673ffffffffffffffffffffffffffffffffffffffff1673ffffffffffffffffffffffffffffffffffffffff1681526020016002820160009054906101000a900473ffffffffffffffffffffffffffffffffffffffff1673ffffffffffffffffffffffffffffffffffffffff1673ffffffffffffffffffffffffffffffffffffffff1681526020016003820154815260200160048201548152602001600582015481526020016006820154815260200160078201548152602001600882015481526020016009820160009054906101000a900460ff1660048111156112c1576112c0611be7565b5b60048111156112d3576112d2611be7565b5b8152602001600a8201548152602001600b8201548152505090504281610100015110611334576040517f08c379a000000000000000000000000000000000000000000000000000000000815260040161132b906126ee565b60405180910390fd5b806000015173ffffffffffffffffffffffffffffffffffffffff166323b872dd30836040015184606001516040518463ffffffff1660e01b815260040161137d93929190611f06565b600060405180830381600087803b15801561139757600080fd5b505af11580156113ab573d6000803e3d6000fd5b505050507fd732b366a228f1b752aab8d14aecab7f0adb07eb9865f543009c3333c91d8e54848260400151336040516113e69392919061270e565b60405180910390a150505050565b803373ffffffffffffffffffffffffffffffffffffffff166001600083815260200190815260200160002060010160009054906101000a900473ffffffffffffffffffffffffffffffffffffffff1673ffffffffffffffffffffffffffffffffffffffff1614611499576040517f08c379a000000000000000000000000000000000000000000000000000000000815260040161149090611fdc565b60405180910390fd5b6000600160008481526020019081526020016000209050600060048111156114c4576114c3611be7565b5b8160090160009054906101000a900460ff1660048111156114e8576114e7611be7565b5b14611528576040517f08c379a000000000000000000000000000000000000000000000000000000000815260040161151f90612791565b60405180910390fd5b8060000160009054906101000a900473ffffffffffffffffffffffffffffffffffffffff1673ffffffffffffffffffffffffffffffffffffffff166323b872dd308360010160009054906101000a900473ffffffffffffffffffffffffffffffffffffffff1684600301546040518463ffffffff1660e01b81526004016115b193929190611f06565b600060405180830381600087803b1580156115cb57600080fd5b505af11580156115df573d6000803e3d6000fd5b5050505060038160090160006101000a81548160ff0219169083600481111561160b5761160a611be7565b5b02179055507fb71becc91961a6b43bcc5b3b630f3dce02c7fd444cf3738c4f188062b1caf5bc8360405161163f9190611aa5565b60405180910390a1505050565b60005481565b60016020528060005260406000206000915090508060000160009054906101000a900473ffffffffffffffffffffffffffffffffffffffff16908060010160009054906101000a900473ffffffffffffffffffffffffffffffffffffffff16908060020160009054906101000a900473ffffffffffffffffffffffffffffffffffffffff16908060030154908060040154908060050154908060060154908060070154908060080154908060090160009054906101000a900460ff169080600a01549080600b015490508c565b600080820361172d57600080fd5b60006117398484611840565b90506f7fffffffffffffffffffffffffffffff6fffffffffffffffffffffffffffffffff16816fffffffffffffffffffffffffffffffff16111561177c57600080fd5b8091505092915050565b6000808203611798576000905061183a565b600083600f0b12156117a957600080fd5b600060406fffffffffffffffffffffffffffffffff841685600f0b02901c90506000608084901c85600f0b02905077ffffffffffffffffffffffffffffffffffffffffffffffff8111156117fc57600080fd5b604081901b9050817fffffffffffffffffffffffffffffffffffffffffffffffffffffffffffffffff0381111561183257600080fd5b818101925050505b92915050565b600080820361184e57600080fd5b600077ffffffffffffffffffffffffffffffffffffffffffffffff841161188b5782604085901b81611883576118826127b1565b5b0490506119f4565b600060c09050600060c086901c905064010000000081106118b457602081901c90506020820191505b6201000081106118cc57601081901c90506010820191505b61010081106118e357600881901c90506008820191505b601081106118f957600481901c90506004820191505b6004811061190f57600281901c90506002820191505b6002811061191e576001820191505b600160bf830360018703901c018260ff0387901b816119405761193f6127b1565b5b0492506fffffffffffffffffffffffffffffffff83111561196057600080fd5b6000608086901c8402905060006fffffffffffffffffffffffffffffffff871685029050600060c089901c9050600060408a901b9050828110156119a5576001820391505b8281039050608084901b9250828110156119c0576001820391505b8281039050608084901c82146119d75760016119e9565b8881816119e7576119e66127b1565b5b045b870196505050505050505b6fffffffffffffffffffffffffffffffff811115611a1157600080fd5b8091505092915050565b600080fd5b6000819050919050565b611a3381611a20565b8114611a3e57600080fd5b50565b600081359050611a5081611a2a565b92915050565b60008060408385031215611a6d57611a6c611a1b565b5b6000611a7b85828601611a41565b9250506020611a8c85828601611a41565b9150509250929050565b611a9f81611a20565b82525050565b6000602082019050611aba6000830184611a96565b92915050565b600073ffffffffffffffffffffffffffffffffffffffff82169050919050565b6000611aeb82611ac0565b9050919050565b611afb81611ae0565b8114611b0657600080fd5b50565b600081359050611b1881611af2565b92915050565b60008060008060008060c08789031215611b3b57611b3a611a1b565b5b6000611b4989828a01611b09565b9650506020611b5a89828a01611a41565b9550506040611b6b89828a01611a41565b9450506060611b7c89828a01611a41565b9350506080611b8d89828a01611a41565b92505060a0611b9e89828a01611a41565b9150509295509295509295565b600060208284031215611bc157611bc0611a1b565b5b6000611bcf84828501611a41565b91505092915050565b611be181611ae0565b82525050565b7f4e487b7100000000000000000000000000000000000000000000000000000000600052602160045260246000fd5b60058110611c2757611c26611be7565b5b50565b6000819050611c3882611c16565b919050565b6000611c4882611c2a565b9050919050565b611c5881611c3d565b82525050565b600061018082019050611c74600083018f611bd8565b611c81602083018e611bd8565b611c8e604083018d611bd8565b611c9b606083018c611a96565b611ca8608083018b611a96565b611cb560a083018a611a96565b611cc260c0830189611a96565b611ccf60e0830188611a96565b611cdd610100830187611a96565b611ceb610120830186611c4f565b611cf9610140830185611a96565b611d07610160830184611a96565b9d9c50505050505050505050505050565b7f4e487b7100000000000000000000000000000000000000000000000000000000600052601160045260246000fd5b6000611d5282611a20565b9150611d5d83611a20565b9250828201905080821115611d7557611d74611d18565b5b92915050565b6000611d8682611a20565b9150611d9183611a20565b9250828203905081811115611da957611da8611d18565b5b92915050565b600082825260208201905092915050565b7f43616e277420637265617465206c6f616e20696e207468652070617374000000600082015250565b6000611df6601d83611daf565b9150611e0182611dc0565b602082019050919050565b60006020820190508181036000830152611e2581611de9565b9050919050565b7f496e7374616c6c6d656e7420706572696f64206d75737420626520677265617460008201527f6572207468616e20300000000000000000000000000000000000000000000000602082015250565b6000611e88602983611daf565b9150611e9382611e2c565b604082019050919050565b60006020820190508181036000830152611eb781611e7b565b9050919050565b6000611ec982611a20565b91507fffffffffffffffffffffffffffffffffffffffffffffffffffffffffffffffff8203611efb57611efa611d18565b5b600182019050919050565b6000606082019050611f1b6000830186611bd8565b611f286020830185611bd8565b611f356040830184611a96565b949350505050565b600060a082019050611f526000830188611a96565b611f5f6020830187611bd8565b611f6c6040830186611a96565b611f796060830185611a96565b611f866080830184611a96565b9695505050505050565b7f4e6f742074686520626f72726f77657200000000000000000000000000000000600082015250565b6000611fc6601083611daf565b9150611fd182611f90565b602082019050919050565b60006020820190508181036000830152611ff581611fb9565b9050919050565b7f4c6f616e206e6f742066756e6465640000000000000000000000000000000000600082015250565b6000612032600f83611daf565b915061203d82611ffc565b602082019050919050565b6000602082019050818103600083015261206181612025565b9050919050565b7f4d61782064726177206361706163697479207265616368656400000000000000600082015250565b600061209e601983611daf565b91506120a982612068565b602082019050919050565b600060208201905081810360008301526120cd81612091565b9050919050565b600081905092915050565b50565b60006120ef6000836120d4565b91506120fa826120df565b600082019050919050565b6000612110826120e2565b9150819050919050565b7f4661696c656420746f2064726177206361706974616c00000000000000000000600082015250565b6000612150601683611daf565b915061215b8261211a565b602082019050919050565b6000602082019050818103600083015261217f81612143565b9050919050565b600060408201905061219b6000830185611a96565b6121a86020830184611bd8565b9392505050565b7f4c6f616e206e6f74206f70656e00000000000000000000000000000000000000600082015250565b60006121e5600d83611daf565b91506121f0826121af565b602082019050919050565b60006020820190508181036000830152612214816121d8565b9050919050565b7f43616e27742066756e6420776974682030204574686572000000000000000000600082015250565b6000612251601783611daf565b915061225c8261221b565b602082019050919050565b6000602082019050818103600083015261228081612244565b9050919050565b7f43616e27742066756e64206d6f7265207468616e206d6178206c6f616e20616d60008201527f6f756e7400000000000000000000000000000000000000000000000000000000602082015250565b60006122e3602483611daf565b91506122ee82612287565b604082019050919050565b60006020820190508181036000830152612312816122d6565b9050919050565b7f43616e27742066756e6420616e2065787069726564206c6f616e000000000000600082015250565b600061234f601a83611daf565b915061235a82612319565b602082019050919050565b6000602082019050818103600083015261237e81612342565b9050919050565b7f4c6f616e206e6f7420696e2072657061796d656e742070686173650000000000600082015250565b60006123bb601b83611daf565b91506123c682612385565b602082019050919050565b600060208201905081810360008301526123ea816123ae565b9050919050565b7f43616e277420726570617920616e2065787069726564206c6f616e0000000000600082015250565b6000612427601b83611daf565b9150612432826123f1565b602082019050919050565b600060208201905081810360008301526124568161241a565b9050919050565b7f496e73756666696369656e742072657061796d656e7400000000000000000000600082015250565b6000612493601683611daf565b915061249e8261245d565b602082019050919050565b600060208201905081810360008301526124c281612486565b9050919050565b7f4c61746520696e7374616c6c6d656e7400000000000000000000000000000000600082015250565b60006124ff601083611daf565b915061250a826124c9565b602082019050919050565b6000602082019050818103600083015261252e816124f2565b9050919050565b7f496e73756666696369656e7420696e7374616c6c6d656e74207061796d656e74600082015250565b600061256b602083611daf565b915061257682612535565b602082019050919050565b6000602082019050818103600083015261259a8161255e565b9050919050565b60006040820190506125b66000830185611a96565b6125c36020830184611a96565b9392505050565b7f4e6f7420746865206c656e646572000000000000000000000000000000000000600082015250565b6000612600600e83611daf565b915061260b826125ca565b602082019050919050565b6000602082019050818103600083015261262f816125f3565b9050919050565b7f4c6f616e206e6f742064656661756c7465640000000000000000000000000000600082015250565b600061266c601283611daf565b915061267782612636565b602082019050919050565b6000602082019050818103600083015261269b8161265f565b9050919050565b7f43616e2774207365697a65206265666f72652065787069727900000000000000600082015250565b60006126d8601983611daf565b91506126e3826126a2565b602082019050919050565b60006020820190508181036000830152612707816126cb565b9050919050565b60006060820190506127236000830186611a96565b6127306020830185611bd8565b61273d6040830184611bd8565b949350505050565b7f43616e27742063616e63656c2061206c6f616e2077697468203e302062696473600082015250565b600061277b602083611daf565b915061278682612745565b602082019050919050565b600060208201905081810360008301526127aa8161276e565b9050919050565b7f4e487b7100000000000000000000000000000000000000000000000000000000600052601260045260246000fdfea2646970667358221220c3a96a61035dcb0479a8f02cc81d2f91810e5eca657b8e68044bf0463173166f64736f6c63430008140033",
  "linkReferences": {},
  "deployedLinkReferences": {}
}